{
  "_format": "hh-sol-artifact-1",
  "contractName": "Counter",
  "sourceName": "contracts/Counter.sol",
  "abi": [
    {
      "inputs": [],
      "stateMutability": "nonpayable",
      "type": "constructor"
    },
    {
      "anonymous": false,
      "inputs": [
        {
          "indexed": false,
          "internalType": "uint256",
          "name": "updatedCount",
          "type": "uint256"
        }
      ],
      "name": "Decreased",
      "type": "event"
    },
    {
      "anonymous": false,
      "inputs": [
        {
          "indexed": false,
          "internalType": "uint256",
          "name": "updatedCount",
          "type": "uint256"
        }
      ],
      "name": "Increased",
      "type": "event"
    },
    {
      "inputs": [],
      "name": "_count",
      "outputs": [
        {
          "internalType": "uint256",
          "name": "",
          "type": "uint256"
        }
      ],
      "stateMutability": "view",
      "type": "function"
    },
    {
      "inputs": [],
      "name": "decrease",
      "outputs": [],
      "stateMutability": "nonpayable",
      "type": "function"
    },
    {
      "inputs": [],
      "name": "increase",
      "outputs": [],
      "stateMutability": "nonpayable",
      "type": "function"
    }
  ],
  "bytecode": "0x608060405234801561001057600080fd5b506102ed806100206000396000f3fe608060405234801561001057600080fd5b50600436106100415760003560e01c80634e1b0ae914610046578063d732d95514610064578063e8927fbc1461006e575b600080fd5b61004e610078565b60405161005b919061017f565b60405180910390f35b61006c61007e565b005b610076610114565b005b60005481565b60008054116100c2576040517f08c379a00000000000000000000000000000000000000000000000000000000081526004016100b9906101f7565b60405180910390fd5b6000808154809291906100d490610246565b91905055507f4fa5877b6c8d448ebaefa4048625aee504905823a70902d5f9a10a0b6ef0e12760005460405161010a919061017f565b60405180910390a1565b6000808154809291906101269061026f565b91905055507f3496c3ede4ec3ab3686712aa1c238593ea6a42df83f98a5ec7df9834cfa577c560005460405161015c919061017f565b60405180910390a1565b6000819050919050565b61017981610166565b82525050565b60006020820190506101946000830184610170565b92915050565b600082825260208201905092915050565b7f636f756e74657220616c7265616479207a65726f000000000000000000000000600082015250565b60006101e160148361019a565b91506101ec826101ab565b602082019050919050565b60006020820190508181036000830152610210816101d4565b9050919050565b7f4e487b7100000000000000000000000000000000000000000000000000000000600052601160045260246000fd5b600061025182610166565b91506000820361026457610263610217565b5b600182039050919050565b600061027a82610166565b91507fffffffffffffffffffffffffffffffffffffffffffffffffffffffffffffffff82036102ac576102ab610217565b5b60018201905091905056fea2646970667358221220460be65351af4b329f7dcaff93ad4ef104704e53ca726392af56e9941173135564736f6c63430008130033",
  "linkReferences": {},
  "deployedLinkReferences": {}
}