{"contracts/Counter.sol":{"Counter":{"abi":[{"inputs":[],"stateMutability":"nonpayable","type":"constructor"},{"anonymous":false,"inputs":[{"indexed":false,"internalType":"uint256","name":"updatedCount","type":"uint256"}],"name":"Decreased","type":"event"},{"anonymous":false,"inputs":[{"indexed":false,"internalType":"uint256","name":"updatedCount","type":"uint256"}],"name":"Increased","type":"event"},{"inputs":[],"name":"_count","outputs":[{"internalType":"uint256","name":"","type":"uint256"}],"stateMutability":"view","type":"function"},{"inputs":[],"name":"decrease","outputs":[],"stateMutability":"nonpayable","type":"function"},{"inputs":[],"name":"increase","outputs":[],"stateMutability":"nonpayable","type":"function"}],"evm":{"bytecode":{"linkReferences":{},"object":"608060405234801561001057600080fd5b506102ed806100206000396000f3fe608060405234801561001057600080fd5b50600436106100415760003560e01c80634e1b0ae914610046578063d732d95514610064578063e8927fbc1461006e575b600080fd5b61004e610078565b60405161005b919061017f565b60405180910390f35b61006c61007e565b005b610076610114565b005b60005481565b60008054116100c2576040517f08c379a00000000000000000000000000000000000000000000000000000000081526004016100b9906101f7565b60405180910390fd5b6000808154809291906100d490610246565b91905055507f4fa5877b6c8d448ebaefa4048625aee504905823a70902d5f9a10a0b6ef0e12760005460405161010a919061017f565b60405180910390a1565b6000808154809291906101269061026f565b91905055507f3496c3ede4ec3ab3686712aa1c238593ea6a42df83f98a5ec7df9834cfa577c560005460405161015c919061017f565b60405180910390a1565b6000819050919050565b61017981610166565b82525050565b60006020820190506101946000830184610170565b92915050565b600082825260208201905092915050565b7f636f756e74657220616c7265616479207a65726f000000000000000000000000600082015250565b60006101e160148361019a565b91506101ec826101ab565b602082019050919050565b60006020820190508181036000830152610210816101d4565b9050919050565b7f4e487b7100000000000000000000000000000000000000000000000000000000600052601160045260246000fd5b600061025182610166565b91506000820361026457610263610217565b5b600182039050919050565b600061027a82610166565b91507fffffffffffffffffffffffffffffffffffffffffffffffffffffffffffffffff82036102ac576102ab610217565b5b60018201905091905056fea2646970667358221220460be65351af4b329f7dcaff93ad4ef104704e53ca726392af56e9941173135564736f6c63430008130033","opcodes":"PUSH1 0x80 PUSH1 0x40 MSTORE CALLVALUE DUP1 ISZERO PUSH2 0x10 JUMPI PUSH1 0x0 DUP1 REVERT JUMPDEST POP PUSH2 0x2ED DUP1 PUSH2 0x20 PUSH1 0x0 CODECOPY PUSH1 0x0 RETURN INVALID PUSH1 0x80 PUSH1 0x40 MSTORE CALLVALUE DUP1 ISZERO PUSH2 0x10 JUMPI PUSH1 0x0 DUP1 REVERT JUMPDEST POP PUSH1 0x4 CALLDATASIZE LT PUSH2 0x41 JUMPI PUSH1 0x0 CALLDATALOAD PUSH1 0xE0 SHR DUP1 PUSH4 0x4E1B0AE9 EQ PUSH2 0x46 JUMPI DUP1 PUSH4 0xD732D955 EQ PUSH2 0x64 JUMPI DUP1 PUSH4 0xE8927FBC EQ PUSH2 0x6E JUMPI JUMPDEST PUSH1 0x0 DUP1 REVERT JUMPDEST PUSH2 0x4E PUSH2 0x78 JUMP JUMPDEST PUSH1 0x40 MLOAD PUSH2 0x5B SWAP2 SWAP1 PUSH2 0x17F JUMP JUMPDEST PUSH1 0x40 MLOAD DUP1 SWAP2 SUB SWAP1 RETURN JUMPDEST PUSH2 0x6C PUSH2 0x7E JUMP JUMPDEST STOP JUMPDEST PUSH2 0x76 PUSH2 0x114 JUMP JUMPDEST STOP JUMPDEST PUSH1 0x0 SLOAD DUP2 JUMP JUMPDEST PUSH1 0x0 DUP1 SLOAD GT PUSH2 0xC2 JUMPI PUSH1 0x40 MLOAD PUSH32 0x8C379A000000000000000000000000000000000000000000000000000000000 DUP2 MSTORE PUSH1 0x4 ADD PUSH2 0xB9 SWAP1 PUSH2 0x1F7 JUMP JUMPDEST PUSH1 0x40 MLOAD DUP1 SWAP2 SUB SWAP1 REVERT JUMPDEST PUSH1 0x0 DUP1 DUP2 SLOAD DUP1 SWAP3 SWAP2 SWAP1 PUSH2 0xD4 SWAP1 PUSH2 0x246 JUMP JUMPDEST SWAP2 SWAP1 POP SSTORE POP PUSH32 0x4FA5877B6C8D448EBAEFA4048625AEE504905823A70902D5F9A10A0B6EF0E127 PUSH1 0x0 SLOAD PUSH1 0x40 MLOAD PUSH2 0x10A SWAP2 SWAP1 PUSH2 0x17F JUMP JUMPDEST PUSH1 0x40 MLOAD DUP1 SWAP2 SUB SWAP1 LOG1 JUMP JUMPDEST PUSH1 0x0 DUP1 DUP2 SLOAD DUP1 SWAP3 SWAP2 SWAP1 PUSH2 0x126 SWAP1 PUSH2 0x26F JUMP JUMPDEST SWAP2 SWAP1 POP SSTORE POP PUSH32 0x3496C3EDE4EC3AB3686712AA1C238593EA6A42DF83F98A5EC7DF9834CFA577C5 PUSH1 0x0 SLOAD PUSH1 0x40 MLOAD PUSH2 0x15C SWAP2 SWAP1 PUSH2 0x17F JUMP JUMPDEST PUSH1 0x40 MLOAD DUP1 SWAP2 SUB SWAP1 LOG1 JUMP JUMPDEST PUSH1 0x0 DUP2 SWAP1 POP SWAP2 SWAP1 POP JUMP JUMPDEST PUSH2 0x179 DUP2 PUSH2 0x166 JUMP JUMPDEST DUP3 MSTORE POP POP JUMP JUMPDEST PUSH1 0x0 PUSH1 0x20 DUP3 ADD SWAP1 POP PUSH2 0x194 PUSH1 0x0 DUP4 ADD DUP5 PUSH2 0x170 JUMP JUMPDEST SWAP3 SWAP2 POP POP JUMP JUMPDEST PUSH1 0x0 DUP3 DUP3 MSTORE PUSH1 0x20 DUP3 ADD SWAP1 POP SWAP3 SWAP2 POP POP JUMP JUMPDEST PUSH32 0x636F756E74657220616C7265616479207A65726F000000000000000000000000 PUSH1 0x0 DUP3 ADD MSTORE POP JUMP JUMPDEST PUSH1 0x0 PUSH2 0x1E1 PUSH1 0x14 DUP4 PUSH2 0x19A JUMP JUMPDEST SWAP2 POP PUSH2 0x1EC DUP3 PUSH2 0x1AB JUMP JUMPDEST PUSH1 0x20 DUP3 ADD SWAP1 POP SWAP2 SWAP1 POP JUMP JUMPDEST PUSH1 0x0 PUSH1 0x20 DUP3 ADD SWAP1 POP DUP2 DUP2 SUB PUSH1 0x0 DUP4 ADD MSTORE PUSH2 0x210 DUP2 PUSH2 0x1D4 JUMP JUMPDEST SWAP1 POP SWAP2 SWAP1 POP JUMP JUMPDEST PUSH32 0x4E487B7100000000000000000000000000000000000000000000000000000000 PUSH1 0x0 MSTORE PUSH1 0x11 PUSH1 0x4 MSTORE PUSH1 0x24 PUSH1 0x0 REVERT JUMPDEST PUSH1 0x0 PUSH2 0x251 DUP3 PUSH2 0x166 JUMP JUMPDEST SWAP2 POP PUSH1 0x0 DUP3 SUB PUSH2 0x264 JUMPI PUSH2 0x263 PUSH2 0x217 JUMP JUMPDEST JUMPDEST PUSH1 0x1 DUP3 SUB SWAP1 POP SWAP2 SWAP1 POP JUMP JUMPDEST PUSH1 0x0 PUSH2 0x27A DUP3 PUSH2 0x166 JUMP JUMPDEST SWAP2 POP PUSH32 0xFFFFFFFFFFFFFFFFFFFFFFFFFFFFFFFFFFFFFFFFFFFFFFFFFFFFFFFFFFFFFFFF DUP3 SUB PUSH2 0x2AC JUMPI PUSH2 0x2AB PUSH2 0x217 JUMP JUMPDEST JUMPDEST PUSH1 0x1 DUP3 ADD SWAP1 POP SWAP2 SWAP1 POP JUMP INVALID LOG2 PUSH5 0x6970667358 0x22 SLT KECCAK256 CHAINID SIGNEXTEND 0xE6 MSTORE8 MLOAD 0xAF 0x4B ORIGIN SWAP16 PUSH30 0xCAFF93AD4EF104704E53CA726392AF56E9941173135564736F6C63430008 SGT STOP CALLER "},"methodIdentifiers":{"_count()":"4e1b0ae9","decrease()":"d732d955","increase()":"e8927fbc"}}}}}